:020000040000FA
:06000000CEEF18F0120023
:0100060000F9
:0100070000F8
:0600080080EF19F0120068
:0600180000EF18F01200D9
:100200000000080002663120010001070001C8312A
:0D02100020020001000000000000000000BE
:10030000D9CFE6FFE1CFD9FF0E012051F36EFE0EEB
:10031000DBCFF4FFF350F45C02E3030ED4D0FE0E07
:10032000DB500C0DF3CFE9FFF4CFEAFF140EE92602
:100330000E0EEA22EF0402E1070EC5D0FC0EDBCF61
:1003400000F0FD0EDBCF01F0FE0EDB500C0DF3CF05
:10035000E9FFF4CFEAFF140EE9260E0EEA22050E9D
:10036000E926000EEA22EE50EFCFEAFFE96EEECF6B
:1003700002F0EFCF03F00050025C0150035802E29C
:10038000080EA1D0FA0EDBCF00F0FB0EDBCF01F0A0
:10039000FE0EDB500C0DF3CFE9FFF4CFEAFF140E95
:1003A000E9260E0EEA22050EE926000EEA22EE509C
:1003B000EFCFEAFFE96E040EE926000EEA22EECF47
:1003C00002F0EFCF03F00250005C0350015822E32B
:1003D000FA0EDBCF04F0FB0EDBCF05F0FE0EDB5098
:1003E0000C0DF3CFE9FFF4CFEAFF140EE9260E0E51
:1003F000EA22050EE926000EEA22EE50EFCFEAFFD0
:10040000E96EEECF06F0EFCF07F00450065C055022
:10041000075802E2080E57D0FC0EDBCF02F0FD0EAB
:10042000DBCF03F0FE0EDB500C0DF3CFE9FFF4CF72
:10043000EAFF140EE9260E0EEA22050EE926000E4A
:10044000EA22EE50EFCFEAFFE96E060EE926000E33
:10045000EA220250EE24006E0350EE20016EFE0EE2
:10046000DB500C0DF3CFE9FFF4CFEAFF140EE926C1
:100470000E0EEA22EE5200C0EEFF01C0EDFFFE0EAE
:10048000DB500C0DF3CFE9FFF4CFEAFF140EE926A1
:100490000E0EEA22030EE926000EEA22FA0EDBCF48
:1004A000EEFFFB0EDBCFEDFFFE0EDB500C0DF3CFAE
:1004B000E9FFF4CFEAFF140EE9260E0EEA22010E40
:1004C000EF6E000E00D0E552E7CFD9FF1200D9CF72
:1004D000E6FFE1CFD9FF0E012051F36EFE0EDBCF18
:1004E000F4FFF350F45C02E3030EB3D0FE0EDB50D6
:1004F0000C0DF3CFE9FFF4CFEAFF140EE9260E0E40
:10050000EA22EF0402E1070EA4D0FC0EDBCF00F0DC
:10051000FD0EDBCF01F0FE0EDB500C0DF3CFE9FF3B
:10052000F4CFEAFF140EE9260E0EEA22050EE926A4
:10053000000EEA22EE50EFCFEAFFE96EEECF02F0B6
:10054000EFCF03F00050025C0150035802E2080EA6
:1005500080D0FA0EDBCF00F0FB0EDBCF01F0FE0EF9
:10056000DB500C0DF3CFE9FFF4CFEAFF140EE926C0
:100570000E0EEA22050EE926000EEA22EE50EFCF1B
:10058000EAFFE96E040EE926000EEA22EECF02F041
:10059000EFCF03F00250005C0350015822E3FA0E43
:1005A000DBCF04F0FB0EDBCF05F0FE0EDB500C0DB5
:1005B000F3CFE9FFF4CFEAFF140EE9260E0EEA228C
:1005C000050EE926000EEA22EE50EFCFEAFFE96EB3
:1005D000EECF06F0EFCF07F00450065C0550075849
:1005E00002E2080E36D0FE0EDB500C0DF3CFE9FF11
:1005F000F4CFEAFF140EE9260E0EEA22EE52FC0EAC
:10060000DBCFEEFFFD0EDBCFEDFFFE0EDB500C0D62
:10061000F3CFE9FFF4CFEAFF140EE9260E0EEA222B
:10062000030EE926000EEA22FA0EDBCFEEFFFB0EE8
:10063000DBCFEDFFFE0EDB500C0DF3CFE9FFF4CF67
:10064000EAFF140EE9260E0EEA22010EEF6E000EEE
:1006500000D0E552E7CFD9FF1200D9CFE6FFE1CFB6
:10066000D9FF0E012051F36EFE0EDBCFF4FFF350E5
:10067000F45C02E3030E48D0FE0EDB500C0DF3CF0A
:10068000E9FFF4CFEAFF140EE9260E0EEA22EF503E
:1006900002E1050E39D0FE0EDB500C0DF3CFE9FF61
:1006A000F4CFEAFF140EE9260E0EEA22EE52EECF48
:1006B00002F0EFCF03F0FE0EDB500C0DF3CFE9FF9D
:1006C000F4CFEAFF140EE9260E0EEA22050EE92603
:1006D000000EEA22EE50EFCFEAFFE96E060EE926A1
:1006E000000EEA22EE50025C006EEE500358016EDE
:1006F000FC0EDBCFE9FFFD0EDBCFEAFF00C0EEFF13
:1007000001C0EDFF000E00D0E552E7CFD9FF120087
:10071000D9CFE6FFE1CFD9FF0E012051F36EFE0ED7
:10072000DBCFF4FFF350F45C02E3030E1DD0FE0EAA
:10073000DB500C0DF3CFE9FFF4CFEAFF140EE926EE
:100740000E0EEA22EF5002E1050E0ED0FE0EDB5037
:100750000C0DF3CFE9FFF4CFEAFF140EE9260E0EDD
:10076000EA22EF6A000E00D0E552E7CFD9FF12006F
:10077000D9CFE6FFE1CFD9FF0E012051F36EFE0E77
:10078000DBCFF4FFF350F45C02E3030E1FD0FE0E48
:10079000DB500C0DF3CFE9FFF4CFEAFF140EE9268E
:1007A0000E0EEA22050EE926000EEA22EE50EFCFE9
:1007B000EAFFE96EE9CF00F0EACF01F0FC0E00C0DD
:1007C000DBFFFD0E01C0DBFF000E00D0E552E7CFDE
:1007D000D9FF1200D9CFE6FFE1CFD9FF0E0120519A
:1007E000F36EFE0EDBCFF4FFF350F45C02E3030E76
:1007F00055D1FE0EDB500C0DF3CFE9FFF4CFEAFF2D
:10080000140EE9260E0EEA22EF5002E1010E46D147
:10081000FE0EDB500C0DF3CFE9FFF4CFEAFF140E10
:10082000E9260E0EEA22050EE926000EEA22EE5017
:10083000EFCFEAFFE96E060EE926000EEA22EE2A65
:10084000EF22FE0EDB500C0DF3CFE9FFF4CFEAFFF1
:10085000140EE9260E0EEA22050EE926000EEA2203
:10086000EE50EFCFEAFFE96E060EE926000EEA220F
:10087000EECF00F0EFCF01F0FE0EDB500C0DF3CF0A
:10088000E9FFF4CFEAFF140EE9260E0EEA22EE523B
:10089000EECF02F0EFCF03F00250001802E1035058
:1008A000011801E0F9D0FE0EDB500C0DF3CFE9FF8B
:1008B000F4CFEAFF140EE9260E0EEA22030EE92613
:1008C000000EEA22EE50ED100DE1FE0EDB500C0D95
:1008D000F3CFE9FFF4CFEAFF140EE9260E0EEA2269
:1008E000EF6A40D0FE0EDB500C0DF3CFE9FFF4CFE2
:1008F000EAFF140EE9260E0EEA22050EE926000E86
:10090000EA22EE50EFCFEAFFE96E060EE926000E6E
:10091000EA22EECF02F0EFCF03F0FE0EDB500C0D1B
:10092000F3CFE9FFF4CFEAFF140EE9260E0EEA2218
:10093000030EE926000EEA220250EE24006E035058
:10094000EE20016EFE0EDB500C0DF3CFE9FFF4CF6D
:10095000EAFF140EE9260E0EEA22EE5200C0EEFF68
:1009600001C0EDFFFE0EDB500C0DF3CFE9FFF4CF1D
:10097000EAFF140EE9260E0EEA22080EE926000E02
:10098000EA22EE50ED1026E0FE0EDB500C0DF3CF08
:10099000E9FFF4CFEAFF140EE9260E0EEA22080E54
:1009A000E926000EEA22EF50E66EFE0EDB500C0D3B
:1009B000F3CFE9FFF4CFEAFF140EE9260E0EEA2288
:1009C000070EE926000EEA22EF50E66E5FEC0BF010
:1009D000E552E552FE0EDB500C0DF3CFE9FFF4CFEC
:1009E000EAFF140EE9260E0EEA22070EE926000E93
:1009F000EA22EF5026E0FE0EDB500C0DF3CFE9FFAC
:100A0000F4CFEAFF140EE9260E0EEA22080EE926BC
:100A1000000EEA22EE50ED1014E1FE0EDB500C0D3C
:100A2000F3CFE9FFF4CFEAFF140EE9260E0EEA2217
:100A3000070EE926000EEA22EF50E66E24EC08F0DD
:100A4000E552FE0EDB500C0DF3CFE9FFF4CFEAFFC9
:100A5000140EE9260E0EEA220A0EE926000EEA22FC
:100A6000EE50ED1019E0FE0EDB500C0DF3CFE9FF58
:100A7000F4CFEAFF140EE9260E0EEA220A0EE9264A
:100A8000000EEA22EECF00F0EFCF01F004D001C05B
:100A9000FAFF0050F96EFBDF030E00D0E552E7CFFE
:100AA000D9FF1200D9CFE6FFE1CFD9FF0E012051C7
:100AB000F36EFE0EDBCFF4FFF350F45C02E3030EA3
:100AC00036D0FE0EDB500C0DF3CFE9FFF4CFEAFF7A
:100AD000140EE9260E0EEA22EF5002E1010E27D095
:100AE000FE0EDB500C0DF3CFE9FFF4CFEAFF140E3E
:100AF000E9260E0EEA22050EE926000EEA22EE5045
:100B0000EFCFEAFFE96E060EE926000EEA22EECFED
:100B100000F0EFCF01F0FC0EDBCFE9FFFD0EDBCFE5
:100B2000EAFF00C0EEFF01C0EDFF000E00D0E5526D
:100B3000E7CFD9FF1200D9CFE6FFE1CFD9FF030EEF
:100B4000E126010ED6CFDBFF020ED7CFDBFFD95057
:100B5000010FE96EDACFEAFF0E013151EE26325174
:100B6000ED22020EDB50D76E010EDB50D66EF294F2
:100B70000E01102B000E11230E01222B2323242300
:100B80002523DF6A0E012051DF5C01E32BD1DF500A
:100B90000C0DF3CFE9FFF4CFEAFF140EE9260E0E99
:100BA000EA22EF5001E11CD1DF500C0DF3CFE9FF39
:100BB000F4CFEAFF140EE9260E0EEA22050EE9260E
:100BC000000EEA22EE50EFCFEAFFE96E060EE926AC
:100BD000000EEA22EECF00F0EFCF01F0DF500C0D57
:100BE000F3CFE9FFF4CFEAFF140EE9260E0EEA2256
:100BF000EE52EECF02F0EFCF03F00250001802E108
:100C00000350011801E0ECD0DF500C0DF3CFE9FFE9
:100C1000F4CFEAFF140EE9260E0EEA22030EE926AF
:100C2000000EEA22EE50ED100CE1DF500C0DF3CF78
:100C3000E9FFF4CFEAFF140EE9260E0EEA22EF6A6E
:100C40003DD0DF500C0DF3CFE9FFF4CFEAFF140ED7
:100C5000E9260E0EEA22050EE926000EEA22EE50E3
:100C6000EFCFEAFFE96E060EE926000EEA22EECF8C
:100C700002F0EFCF03F0DF500C0DF3CFE9FFF4CF1C
:100C8000EAFF140EE9260E0EEA22030EE926000EF4
:100C9000EA220250EE24006E0350EE20016EDF5077
:100CA0000C0DF3CFE9FFF4CFEAFF140EE9260E0E88
:100CB000EA22EE5200C0EEFF01C0EDFFDF500C0D46
:100CC000F3CFE9FFF4CFEAFF140EE9260E0EEA2275
:100CD000080EE926000EEA22EE50ED1024E0DF5067
:100CE0000C0DF3CFE9FFF4CFEAFF140EE9260E0E48
:100CF000EA22080EE926000EEA22EF50E66EDF50E7
:100D00000C0DF3CFE9FFF4CFEAFF140EE9260E0E27
:100D1000EA22070EE926000EEA22EF50E66E5FECAB
:100D20000BF0E552E552DF500C0DF3CFE9FFF4CFA5
:100D3000EAFF140EE9260E0EEA22070EE926000E3F
:100D4000EA22EF5024E0DF500C0DF3CFE9FFF4CF9F
:100D5000EAFF140EE9260E0EEA22080EE926000E1E
:100D6000EA22EE50ED1013E1DF500C0DF3CFE9FF56
:100D7000F4CFEAFF140EE9260E0EEA22070EE9264A
:100D8000000EEA22EF50E66E24EC08F0E552DF5048
:100D90000C0DF3CFE9FFF4CFEAFF140EE9260E0E97
:100DA000EA220A0EE926000EEA22EE50ED1018E0C3
:100DB000DF500C0DF3CFE9FFF4CFEAFF140EE92664
:100DC0000E0EEA220A0EE926000EEA22EECF00F00D
:100DD000EFCF01F004D001C0FAFF0050F96EFBDF45
:100DE000DF2AD0D600016E85030EE15C03E200D05D
:100DF000E16AE552E16EE552E7CFD9FF1200D9CFA3
:100E0000E6FFE1CFD9FF030EE126D950010FE96ECD
:100E1000DACFEAFFA00EEE6E000EED6EDF6A100E66
:100E2000DF5C3DE2010EDBCFE9FF020EDBCFEAFF24
:100E3000EF500F0B006EFD0EDB50005C29E1DF5020
:100E4000016AB00F006E000E0122010E00C0DBFF30
:100E5000020E01C0DBFF010EDBCFE9FF020EDBCF8C
:100E6000EAFFEF50F00BE66E010EDBCFE9FF020E5A
:100E7000DBCFEAFFE552E750EF6E010EDBCFE9FF73
:100E8000020EDBCFEAFFFE0EDB50EF26000E09D08C
:100E9000010EDB2A020E01E3DB2ADF2AC0D7030E94
:100EA00000D0006E030EE15C02E2E16AE552E16E01
:100EB0000050E552E7CFD9FF1200D9CFE6FFE1CFCE
:100EC000D9FF030EE126D950010FE96EDACFEAFF10
:100ED000A00EEE6E000EED6EDF6A100EDF5C34E2E7
:100EE000010EDBCFE9FF020EDBCFEAFFEF500F0B65
:100EF000006EFC0EDB50005C20E1DF50016AB00F99
:100F0000006E000E0122010E00C0DBFF020E01C0C8
:100F1000DBFF010EDBCFE9FF020EDBCFEAFFEF5074
:100F20000F0BE66EFD0EDBCFE9FFFE0EDBCFEAFF17
:100F3000E552E750EF6E000E09D0010EDB2A020EDB
:100F400001E3DB2ADF2AC9D7030E00D0006E030EAF
:100F5000E15C02E2E16AE552E16E0050E552E7CF62
:100F6000D9FF1200D9CFE6FFE1CFD9FF00016A35E2
:100F700014E2100E0001E76E6A19E8AE02D0E73401
:100F800002D0E7506A5D09E2FD0EDBCFE9FFFE0EFD
:100F9000DBCFEAFF6AC0EFFF08D0FD0EDBCFE9FF31
:100FA000FE0EDBCFEAFF100EEF6E000E00D0E55212
:100FB000E7CFD9FF1200D9CFE6FFE1CFD9FF030E6B
:100FC000E126D950010FE96EDACFEAFFA00EEE6EEE
:100FD000000EED6EDF6A100EDF5C28E2010EDBCF43
:100FE000E9FF020EDBCFEAFFEF500F0B006EFE0EA3
:100FF000DB50005C14E1010EDBCFE9FF020EDBCF1A
:10100000EAFFEF50E00BE66EFC0EDBCFE9FFFD0ED2
:10101000DBCFEAFFE552E750EF6E000E09D0010E7C
:10102000DB2A020E01E3DB2ADF2AD5D7030E00D02C
:10103000006E030EE15C02E2E16AE552E16E0050EF
:10104000E552E7CFD9FF1200D9CFE6FFE1CFD9FFB4
:10105000030EE126D950010FE96EDACFEAFFA00EA8
:10106000EE6E000EED6EDF6A100EDF5C57E2010ED1
:10107000DBCFE9FF020EDBCFEAFFEF500F0B006E74
:10108000FE0EDB50005C43E1010EDBCFE9FF020EF8
:10109000DBCFEAFFEF50E00B16E10F0E006E010E02
:1010A000DBCFE9FF020EDBCFEAFF0050EF16200E88
:1010B000006E010EDBCFE9FF020EDBCFEAFF00502E
:1010C000EF2616D922D0DF50016AB00F006E000E55
:1010D0000122010E00C0DBFF020E01C0DBFF010E8A
:1010E000DBCFE9FF020EDBCFEAFFEF50F00B006E23
:1010F000F00E005C0AE2100E006E010EDBCFE9FF7D
:10110000020EDBCFEAFF0050EF26000E09D0010EE1
:10111000DB2A020E01E3DB2ADF2AA6D7030E00D06A
:10112000006E030EE15C02E2E16AE552E16E0050FE
:10113000E552E7CFD9FF1200D9CFE6FFE1CFD9FFC3
:10114000030EE126D950010FE96EDACFEAFFA00EB7
:10115000EE6E000EED6EDF6A100EDF5C54E2010EE3
:10116000DBCFE9FF020EDBCFEAFFEF500F0B0001F0
:101170006A5D42E1DF50016AB00F006E000E01228D
:10118000010E00C0DBFF020E01C0DBFF010EDBCF52
:10119000E9FF020EDBCFEAFFEF50E00B20E1DF506A
:1011A000016AA00F006E000E0122010E00C0DBFFDD
:1011B000020E01C0DBFF0F0E006E010EDBCFE9FF58
:1011C000020EDBCFEAFF0050EF16010EDBCFE9FF86
:1011D000020EDBCFEAFFF29C1BEF0FF00DD0100EDA
:1011E000006E010EDBCFE9FF020EDBCFEAFF0050FD
:1011F000EF5EF29C1BEF0FF0010EDB2A020E01E303
:10120000DB2ADF2AA9D7000E00D0006E030EE15CB6
:1012100002E2E16AE552E16E0050E552E7CFD9FF04
:101220001200D9CFE6FFE1CFD9FF030EE126D95056
:10123000010FE96EDACFEAFFA00EEE6E000EED6E42
:10124000DF6A100EDF5C43E2010EDBCFE9FF020E26
:10125000DBCFEAFFEF500F0B00016A5D10E10F0ECC
:10126000006E010EDBCFE9FF020EDBCFEAFF00507C
:10127000EF16010EDBCFE9FF020EDBCFEAFF010E16
:10128000DBCFE9FF020EDBCFEAFFEF500F0B006E62
:10129000FE0EDB50005C14E10F0E006E010EDBCF82
:1012A000E9FF020EDBCFEAFF0050EF16200E006EC2
:1012B000010EDBCFE9FF020EDBCFEAFF0050EF2685
:1012C000010EDB2A020E01E3DB2ADF2ABAD7F29CE9
:1012D0001BEF0FF0000E00D0006E030EE15C02E287
:1012E000E16AE552E16E0050E552E7CFD9FF120006
:1012F000F29C00016E8500016EA302D0000E46D064
:1013000000016E9500016EA13DD0F29CD8CFE4FFA4
:10131000E8CFE4FFE0CFE4FFD9CFE4FFDACFE4FF8A
:10132000E9CFE4FFEACFE4FFF8CFE4FFF7CFE4FF33
:10133000F6CFE4FFF5CFE4FFF4CFE4FFF3CFE4FF13
:10134000210EE96AEA6AE850E806000903E0EECFF8
:10135000E4FFF9D7FCCFE9FFFC50000808E2FDCF1D
:10136000E4FFFECFE4FFFFCFE4FF0600F5D7E9CFAF
:10137000E4FFE4522FCEE9FF30CEEAFFE1CFEEFFEB
:10138000E2CFEEFFEEEF0DF0000E00D012000E01E6
:101390002E5100D01200D9CFE6FFE1CFD9FFF29C49
:1013A000D8CFE4FFE8CFE4FFE0CFE4FFD9CFE4FFFC
:1013B000DACFE4FFE9CFE4FFEACFE4FFF8CFE4FFC0
:1013C000F7CFE4FFF6CFE4FFF5CFE4FFF4CFE4FF7F
:1013D000F3CFE4FF210EE96AEA6AE850E806000963
:1013E00003E0EECFE4FFF9D7FCCFE9FFFC500008A3
:1013F00008E2FDCFE4FFFECFE4FFFFCFE4FF0600ED
:10140000F5D7E9CFE4FFE452E1CFE9FFE2CFEAFF0D
:10141000E1CFEEFFE2CFEEFFE1CF2DFEE2CF2CFEDB
:10142000FE0EDBCF2EFEFC6A5EEF0DF0E552E7CF3D
:10143000D9FF1200D9CFE6FFE1CFD9FF2DCEE1FFD2
:101440002CCEE2FF58EC0EF0E552E7CFD9FF1200A8
:10145000F29CD8CFE4FFE8CFE4FFE0CFE4FFD9CFA0
:10146000E4FFDACFE4FFE9CFE4FFEACFE4FFF8CF0F
:10147000E4FFF7CFE4FFF6CFE4FFF5CFE4FFF4CFCE
:10148000E4FFF3CFE4FF210EE96AEA6AE850E806D8
:10149000000903E0EECFE4FFF9D7FCCFE9FFFC50F1
:1014A000000808E2FDCFE4FFFECFE4FFFFCFE4FF3A
:1014B0000600F5D7E9CFE4FFE4522FCEE9FF30CEA6
:1014C000EAFFE1CFEEFFE2CFEEFFB9EF0DF0120041
:1014D000D9CFE6FFE1CFD9FFFD0EDBCF00F0FE0E46
:1014E000DBCF01F00E012951026E036A0250005C4D
:1014F0000350015802E3030E73D0FD0EDBCFE9FF6A
:10150000FE0EDBCFEAFF030EEA02F3CFEAFFE902A9
:10151000F3CFE9FFF450EA26260EE9260E0EEA2262
:10152000020EE926000EEA22EF0402E1010E58D075
:101530006AC0E6FFFD0EDBCFE9FFFE0EDBCFEAFF60
:10154000030EEA02F3CFEAFFE902F3CFE9FFF4501A
:10155000EA26260EE9260E0EEA22EE52E9CF00F028
:10156000EACF01F000C0E6FF01C0E6FFA6DCE552CD
:10157000E552E5526AC0E6FFFD0EDBCFE9FFFE0E45
:10158000DBCFEAFF030EEA02F3CFEAFFE902F3CF73
:10159000E9FFF450EA26260EE9260E0EEA22EF5065
:1015A000E66E2DDCE552E552FD0EDBCFE9FFFE0EC7
:1015B000DBCFEAFF030EEA02F3CFEAFFE902F3CF43
:1015C000E9FFF450EA26260EE9260E0EEA22020E64
:1015D000E926000EEA22010EEF6E3ADF000E00D07F
:1015E000E552E7CFD9FF1200D9CFE6FFE1CFD9FF0F
:1015F000FD0EDBCF00F0FE0EDBCF01F00E01295116
:10160000026E036A0250005C0350015802E3030EAD
:1016100052D0FD0EDBCFE9FFFE0EDBCFEAFF030E5B
:10162000EA02F3CFEAFFE902F3CFE9FFF450EA263A
:10163000260EE9260E0EEA22020EE926000EEA2206
:10164000EF5002E1010E37D06AC0E6FFFD0EDBCF9E
:10165000E9FFFE0EDBCFEAFF030EEA02F3CFEAFF5B
:10166000E902F3CFE9FFF450EA26260EE9260E0E32
:10167000EA22EE52EF50E66EFFEC06F0E552E5523C
:10168000FD0EDBCFE9FFFE0EDBCFEAFF030EEA0221
:10169000F3CFEAFFE902F3CFE9FFF450EA26260E82
:1016A000E9260E0EEA22020EE926000EEA22EF6A71
:1016B000CFDE000E00D0E552E7CFD9FF1200D9CF20
:1016C000E6FFE1CFD9FF030EE126D950010FE96E05
:1016D000DACFEAFFA00EEE6E000EED6EDF6A100E9E
:1016E000DF5C71E2010EDBCFE9FF020EDBCFEAFF28
:1016F000EF500F0B006EFE0EDB50005C5DE1010E43
:10170000DBCFE9FF020EDBCFEAFFEF50200B02E157
:10171000070E60D0DF50016A800F006E000E0122BC
:10172000010E00C0DBFF020E01C0DBFF010EDBCFAC
:10173000E9FF020EDBCFEAFFFD0EDB50EF12DF50B8
:10174000016A900F006E000E0122010E00C0DBFF47
:10175000020E01C0DBFFFD0EDBCFE6FF010EDBCF8B
:10176000E9FF020EDBCFEAFFEF50E552E71403E199
:10177000000E30D021D0DF50016AA00F006E000EA5
:101780000122010E00C0DBFF020E01C0DBFF0F0EC5
:10179000006E010EDBCFE9FF020EDBCFEAFF005047
:1017A000EF16010EDBCFE9FF020EDBCFEAFFEF8A77
:1017B00078EC09F0000E0ED0DF2A010EDB2A020EB3
:1017C00001E3DB2A8CD7100EDF5C02E1030E02D0AE
:1017D000000E00D0006E030EE15C02E2E16AE55209
:1017E000E16E0050E552E7CFD9FF1200D9CFE6FFF6
:1017F000E1CFD9FF030EE126D950010FE96EDACF10
:10180000EAFFA00EEE6E000EED6EDF6A100EDF5CDA
:1018100042E2010EDBCFE9FF020EDBCFEAFFEF5021
:101820000F0B00016A5D30E1DF50016A800F006E2E
:10183000000E0122010E00C0DBFF020E01C0DBFF23
:10184000FE0EDB1C006E010EDBCFE9FF020EDBCFCC
:10185000EAFF0050EF16DF50016A900F006E000E95
:101860000122010E00C0DBFF020E01C0DBFFFE0EF5
:10187000DB1C006E010EDBCFE9FF020EDBCFEAFFBF
:101880000050EF16000E09D0DF2A010EDB2A020EEF
:1018900001E3DB2ABBD7000E00D0006E030EE15C33
:1018A00002E2E16AE552E16E0050E552E7CFD9FF6E
:1018B0001200D9CFE6FFE1CFD9FF030EE126D950C0
:1018C000010FE96EDACFEAFFA00EEE6E000EED6EAC
:1018D000DF6A100EDF5C3EE2010EDBCFE9FF020E95
:1018E000DBCFEAFFEF500F0B006EFE0EDB50005C0B
:1018F0002AE1010EDBCFE9FF020EDBCFEAFFEF505A
:10190000E00B02E1070E2DD0DF50016A800F006E60
:10191000000E0122010E00C0DBFF020E01C0DBFF42
:10192000010EDBCFE9FF020EDBCFEAFFEF50E66EE0
:10193000FC0EDBCFE9FFFD0EDBCFEAFFE552E750FF
:10194000EF6E000E0ED0DF2A010EDB2A020E01E33D
:10195000DB2ABFD7100EDF5C02E1030E02D0000EBF
:1019600000D0006E030EE15C02E2E16AE552E16E36
:101970000050E552E7CFD9FF1200D9CFE6FFE1CF03
:10198000D9FF030EE126D950010FE96EDACFEAFF45
:10199000A00EEE6E000EED6EDF6A100EDF5C5CE2F4
:1019A000010EDBCFE9FF020EDBCFEAFFEF500F0B9A
:1019B00000016A5D4AE1F29CDF50016A900F006EFF
:1019C000000E0122010E00C0DBFF020E01C0DBFF92
:1019D000010EDBCFE9FF020EDBCFEAFFFE0EDBCF0D
:1019E000EFFFDF50016A800F006E000E0122010E32
:1019F00000C0DBFF020E01C0DBFFFE0EDBCFE6FF07
:101A0000010EDBCFE9FF020EDBCFEAFFEF50E5521C
:101A1000E71418E1DF50016AA00F006E000E0122EA
:101A2000010E00C0DBFF020E01C0DBFF800E006E66
:101A3000010EDBCFE9FF020EDBCFEAFF0050EF26FD
:101A400078EC09F0F28C000E0ED0DF2A010EDB2AB2
:101A5000020E01E3DB2AA1D7100EDF5C02E1030EC8
:101A600002D0000E00D0006E030EE15C02E2E16ADB
:101A7000E552E16E0050E552E7CFD9FF1200F28E39
:101A8000F28C1200F29EF29C1200F28EF28C120086
:101A9000F29EF29C1200F28C1200F29C12006EC0B8
:101AA00034FE00016E83120000016EA504D034CE16
:101AB0006EF078EC09F034CE6EF01200EA6AE96A52
:101AC000E16AE26AF86AFA6AFF0EEE6AE962FDD735
:101AD000EE6AEA6AFC6A1F0EFC2AFF6AFE6AFD6A69
:101AE000FC62FAD7FC6AFC2A880ED56E9D6AA06A51
:101AF000D06A9F6AA26A800EF16ED08EA00EF26E3E
:101B0000F2840001010EFC6E6B6B6D6F6A6BEA6A0A
:101B1000B00EE96EF86A2BCEF7FF2ACEF6FF090069
:101B2000F550D8B429D0F5CFEFFF0900F550E16E9C
:101B30000900F550E26EE550AD0EE56EDE0EE76E83
:101B4000E650E65009000900E9980900F550EF2633
:101B50000900F550EF260900F550E126E86AE22277
:101B60000900E550AD0EE56EDE0EE76EE92AE98864
:101B7000D6D700016D6B6D2BEA6AB00EE96E6D5120
:101B8000D8B42CD06D6B0F0EEF146B6FD8B4F4D7A4
:101B9000EFCF6CF00F0EEC146B6301D0F4D76B65D4
:101BA00001D0F1D7ED50EE6E6CC0EFFFE998EDCFAC
:101BB0006CF0EF506CC0EEFFEF6EE99AEDCF6CF079
:101BC000EF506CC0EEFFEF6EE988EDCF6CF0EF5098
:101BD0006CC0EEFFEF6EE98A6D2BD5D700016E91D8
:101BE0006A51D8B430D0EA6A9F0EE96EE92A1F0E16
:101BF000EF146A63FBD7EF9C6A6BE9880F0EEF1452
:101C00006B6F0F0EEC146B631ED000D0EDCF6CF039
:101C1000EF506CC0EEFFEF6EE998EDCF6CF0EF5037
:101C20006CC0EEFFEF6EE99AEDCF6CF0EF506CC038
:101C3000EEFFEF6EE988EDCF6CF0EF506CC0EEFF79
:101C4000EF6EE98ADED7EA6A9F0EE96EE92AEFAA0B
:101C500074D0EFBE72D00001EF8C1F0EEF146A6FCC
:101C600000016E81F86A2BCEF7FF2ACEF6FF060E32
:101C7000F626E86AF72200016A510900F56201D0F0
:101C800005D0080EF626E86AF722F6D7060EF65EAD
:101C9000E86AF75A0900F550E96E0900F550EA6E56
:101CA0000900F550706F0900F550716FA8EF0EF044
:101CB0000001E5CF6BF0E5CF6BF0FC6A0500E55065
:101CC000FF6EE550FE6EE550FD6EFC506B63F6D77F
:101CD000EA6A1F0EE96EE5CFEDFFE950D8A8FBD701
:101CE000E5CFF3FFE5CFF4FFE5CFF5FFE5CFF6FF56
:101CF000E5CFF7FFE5CFF8FFE5CFEAFFE5CFE9FF56
:101D0000E5CFDAFFE5CFD9FFE5CFE0FFE5CFE8FF8C
:101D1000E5CFD8FFF28C1000E9CFE1FFE9CFD9FF82
:101D2000EACFE2FFEACFDAFFFC6AFC2A7051FD6ECF
:101D30007151FE6EFF6AF28C1000AF0EE95C86E115
:101D40002CCEE2FF2DCEE1FF0001F28CFC6AFCD725
:101D5000E9CF2FFEEACF30FEEDCFE8FFAD0EEDCF9D
:101D6000E1FFE162F5EF0EF0DE0EEDCFE1FFE162A3
:101D7000F5EF0EF0F86A2BCEF7FF2ACEF6FF060E2F
:101D8000F626E86AF72200016A510900F56201D0DF
:101D900005D0080EF626E86AF722F6D72FCEE9FF1F
:101DA00030CEEAFF0900F550E926E86AEA22090088
:101DB000EDCFE8FFAD0EEDCFE1FFE16207EF0FF0F1
:101DC000DE0EEDCFE1FFE16207EF0FF02FCEE9FF6E
:101DD00030CEEAFFEECFE1FFEECFE2FFE150D8A434
:101DE00067D7E250D8B498D763D7EA6A9F0EE96EF6
:101DF000E92A1F0EEF146A63FBD7EF9AEF9CEF9E60
:101E00006FC0E8FFF00B6A25E8CF6FF0E7D6EA6A0B
:101E10009F0EE96EE92A1F0EEF146A63FBD7EF9A53
:101E2000EF9CEF9E6FC0E8FFE838F00B6A25E838BA
:101E3000E8CF6FF0D3D6F86A2BCEF7FF2ACEF6FFA5
:101E4000060EF626E86AF72200016A510900F562DB
:101E500001D005D0080EF626E86AF722F6D7060E5E
:101E6000F65EE86AF75A0900F550E96E0900F55088
:0C1E7000EA6EE86AEE6EEF6EEEEF0DF029
:10300000D8CFE4FFE0CFE4FFE46EDACFE4FFE2CF15
:10301000DAFFE9CFE4FFEACFE4FFF6CFE4FFF7CF32
:10302000E4FFF5CFE4FFF3CFE4FFF4CFE4FFFACF02
:10303000E4FF00EE08F0020EE80403E3EECFE4FF45
:10304000FBD700EE00F0080EE80403E3EECFE4FF48
:10305000FBD7E6524FEC0DF0F2A402D09BEC05F04A
:103060009EA811D0000E0E01E76E3719E8AE02D00F
:10307000373503D0E750D880375505E23707375149
:103080000E01355DAD6E9EAA0ED0AECF35FE0E019F
:103090000A0E376F400EE66E020EE66E5FEC0BF026
:1030A000E552E5529E9AABA202D0AB98AB8854ECA5
:1030B0000DF0E55200EE07F0080EE80403E3E5CF5B
:1030C000EDFFFBD700EE09F0020EE80403E3E5CFC5
:1030D000EDFFFBD7E5CFFAFFE5CFF4FFE5CFF3FF38
:1030E000E5CFF5FFE5CFF7FFE5CFF6FFE5CFEAFF48
:1030F000E5CFE9FFE5CFDAFFE550E5CFE0FFE5CF2B
:04310000D8FF1000E4
:0C310400FC6A0E01336B06D833CEE6FFE8
:10311000CBEC09F0E552FAD7EA6AE96A0E01580EDB
:10312000316FF70E326F080ED56E32CED7FF31CE2B
:10313000D6FF948E949C400EAF6E040EAC6E900E33
:10314000AB6EF26A9D889D8A9E6AF28CF28E1200A6
:10315000120003D002D012001200D9CFE6FFE552D0
:06316000E7CFD9FF1200C9
:0A316600880EE66E130EE66E640E8E
:10317000E66EE66AE66A80EC01F0006E050EE15E3E
:103180000050800EE66EBDEC0CF0E552800EE66E4F
:0C319000F6EC0BF0E552400EAD6EF3D7EC
:04319C001EEE80F0B3
:1031A0002EEE80F0F86A099CFF0EE96E0E0EEA6EB4
:1031B000010E006E000EED6E0052FDE19CEC19F068
:0831C00082EC18F0FDD71200AB
:0831C800400EE66EBDEC0CF0B8
:1031D000E552400EE66EF6EC0BF0E55235CEADFF53
:0231E000F3D723
:0E31E200C8000A00640000000000FFFF0100AA
:1031F00000000000000000000000000A0E01800036
:0E32000000000101000000000A0000010202AF
:10330000DACFE4FFE652F2B2F292E552E5CFDAFF0D
:023310001100AA
:0E331200030007000000370E0000010000005D
:10332000E2310000000E00002C000000060000004A
:08333000360E00000100000050
:08333800120EF66E330EF76E63
:10334000000EF86E00010900F550656F0900F55098
:10335000666F03E1656701D03DD00900F550606FED
:103360000900F550616F0900F550626F090009000E
:10337000F550E96E0900F550EA6E090009000900F0
:10338000F550636F0900F550646F09000900F6CF2E
:1033900067F0F7CF68F0F8CF69F060C0F6FF61C062
:1033A000F7FF62C0F8FF0001635302E1645307E0D6
:1033B0000900F550EE6E6307F8E26407F9D767C0BD
:1033C000F6FF68C0F7FF69C0F8FF00016507000E4F
:0633D000665BBFD712008E
:0A33D600800EF36E00EE00F00F0E03
:1033E00001D81200EA6002D0EE6AFCD7F350E9601F
:0633F0001200EE6AFCD79A
:06340000CEEF18F01200EF
:020000040030CA
:0100010006F8
:0100020019E4
:010003001EDE
:010005008377
:010006008178
:00000001FF
